{
	"contracts/structsContract.sol": {
		"StructsContract": {
			"abi": [
				{
					"inputs": [
						{
							"internalType": "bytes32",
							"name": "_lastName",
							"type": "bytes32"
						},
						{
							"internalType": "uint8",
							"name": "_value",
							"type": "uint8"
						},
						{
							"internalType": "uint16",
							"name": "_age",
							"type": "uint16"
						}
					],
					"name": "addName",
					"outputs": [
						{
							"internalType": "bool",
							"name": "",
							"type": "bool"
						}
					],
					"stateMutability": "nonpayable",
					"type": "function"
				},
				{
					"inputs": [
						{
							"internalType": "bytes32",
							"name": "name",
							"type": "bytes32"
						}
					],
					"name": "getName",
					"outputs": [
						{
							"internalType": "bytes32",
							"name": "",
							"type": "bytes32"
						},
						{
							"internalType": "uint8",
							"name": "",
							"type": "uint8"
						},
						{
							"internalType": "uint16",
							"name": "",
							"type": "uint16"
						}
					],
					"stateMutability": "view",
					"type": "function"
				}
			],
			"devdoc": {
				"kind": "dev",
				"methods": {},
				"version": 1
			},
			"evm": {
				"assembly": "    /* \"contracts/structsContract.sol\":60:827  contract StructsContract{... */\n  mstore(0x40, 0x80)\n  callvalue\n  dup1\n  iszero\n  tag_1\n  jumpi\n  0x00\n  dup1\n  revert\ntag_1:\n  pop\n  dataSize(sub_0)\n  dup1\n  dataOffset(sub_0)\n  0x00\n  codecopy\n  0x00\n  return\nstop\n\nsub_0: assembly {\n        /* \"contracts/structsContract.sol\":60:827  contract StructsContract{... */\n      mstore(0x40, 0x80)\n      callvalue\n      dup1\n      iszero\n      tag_1\n      jumpi\n      0x00\n      dup1\n      revert\n    tag_1:\n      pop\n      jumpi(tag_2, lt(calldatasize, 0x04))\n      shr(0xe0, calldataload(0x00))\n      dup1\n      0x54b8d5e3\n      eq\n      tag_3\n      jumpi\n      dup1\n      0x6af75d2a\n      eq\n      tag_4\n      jumpi\n    tag_2:\n      0x00\n      dup1\n      revert\n        /* \"contracts/structsContract.sol\":214:533  function getName(bytes32 name) public  view  returns (bytes32,uint8,uint16){... */\n    tag_3:\n      tag_5\n      0x04\n      dup1\n      calldatasize\n      sub\n      dup2\n      add\n      swap1\n      tag_6\n      swap2\n      swap1\n      tag_7\n      jump\t// in\n    tag_6:\n      tag_8\n      jump\t// in\n    tag_5:\n      mload(0x40)\n      tag_9\n      swap4\n      swap3\n      swap2\n      swap1\n      tag_10\n      jump\t// in\n    tag_9:\n      mload(0x40)\n      dup1\n      swap2\n      sub\n      swap1\n      return\n        /* \"contracts/structsContract.sol\":539:824  function addName(bytes32 _lastName,uint8 _value,uint16 _age) public returns  (bool){... */\n    tag_4:\n      tag_11\n      0x04\n      dup1\n      calldatasize\n      sub\n      dup2\n      add\n      swap1\n      tag_12\n      swap2\n      swap1\n      tag_13\n      jump\t// in\n    tag_12:\n      tag_14\n      jump\t// in\n    tag_11:\n      mload(0x40)\n      tag_15\n      swap2\n      swap1\n      tag_16\n      jump\t// in\n    tag_15:\n      mload(0x40)\n      dup1\n      swap2\n      sub\n      swap1\n      return\n        /* \"contracts/structsContract.sol\":214:533  function getName(bytes32 name) public  view  returns (bytes32,uint8,uint16){... */\n    tag_8:\n        /* \"contracts/structsContract.sol\":268:275  bytes32 */\n      0x00\n        /* \"contracts/structsContract.sol\":276:281  uint8 */\n      dup1\n        /* \"contracts/structsContract.sol\":282:288  uint16 */\n      0x00\n        /* \"contracts/structsContract.sol\":303:310  uint8 i */\n      dup1\n        /* \"contracts/structsContract.sol\":313:314  0 */\n      0x00\n        /* \"contracts/structsContract.sol\":303:314  uint8 i = 0 */\n      swap1\n      pop\n        /* \"contracts/structsContract.sol\":299:502  for(uint8 i = 0; i < myFamily.length; i++){... */\n    tag_18:\n        /* \"contracts/structsContract.sol\":320:328  myFamily */\n      0x00\n        /* \"contracts/structsContract.sol\":320:335  myFamily.length */\n      dup1\n      sload\n      swap1\n      pop\n        /* \"contracts/structsContract.sol\":316:317  i */\n      dup2\n        /* \"contracts/structsContract.sol\":316:335  i < myFamily.length */\n      0xff\n      and\n      lt\n        /* \"contracts/structsContract.sol\":299:502  for(uint8 i = 0; i < myFamily.length; i++){... */\n      iszero\n      tag_19\n      jumpi\n        /* \"contracts/structsContract.sol\":366:374  myFamily */\n      0x00\n        /* \"contracts/structsContract.sol\":375:376  i */\n      dup2\n        /* \"contracts/structsContract.sol\":366:377  myFamily[i] */\n      0xff\n      and\n      dup2\n      sload\n      dup2\n      lt\n      tag_21\n      jumpi\n      tag_22\n      tag_23\n      jump\t// in\n    tag_22:\n    tag_21:\n      swap1\n      0x00\n      mstore\n      keccak256(0x00, 0x20)\n      swap1\n      0x02\n      mul\n      add\n        /* \"contracts/structsContract.sol\":366:386  myFamily[i].lastName */\n      0x00\n      add\n      sload\n        /* \"contracts/structsContract.sol\":358:362  name */\n      dup6\n        /* \"contracts/structsContract.sol\":358:386  name == myFamily[i].lastName */\n      sub\n        /* \"contracts/structsContract.sol\":355:492  if(name == myFamily[i].lastName){... */\n      tag_25\n      jumpi\n        /* \"contracts/structsContract.sol\":413:421  myFamily */\n      0x00\n        /* \"contracts/structsContract.sol\":422:423  i */\n      dup2\n        /* \"contracts/structsContract.sol\":413:424  myFamily[i] */\n      0xff\n      and\n      dup2\n      sload\n      dup2\n      lt\n      tag_26\n      jumpi\n      tag_27\n      tag_23\n      jump\t// in\n    tag_27:\n    tag_26:\n      swap1\n      0x00\n      mstore\n      keccak256(0x00, 0x20)\n      swap1\n      0x02\n      mul\n      add\n        /* \"contracts/structsContract.sol\":413:433  myFamily[i].lastName */\n      0x00\n      add\n      sload\n        /* \"contracts/structsContract.sol\":440:448  myFamily */\n      0x00\n        /* \"contracts/structsContract.sol\":449:450  i */\n      dup3\n        /* \"contracts/structsContract.sol\":440:451  myFamily[i] */\n      0xff\n      and\n      dup2\n      sload\n      dup2\n      lt\n      tag_29\n      jumpi\n      tag_30\n      tag_23\n      jump\t// in\n    tag_30:\n    tag_29:\n      swap1\n      0x00\n      mstore\n      keccak256(0x00, 0x20)\n      swap1\n      0x02\n      mul\n      add\n        /* \"contracts/structsContract.sol\":440:459  myFamily[i].houseNo */\n      0x01\n      add\n      0x00\n      swap1\n      sload\n      swap1\n      0x0100\n      exp\n      swap1\n      div\n      0xff\n      and\n        /* \"contracts/structsContract.sol\":461:469  myFamily */\n      0x00\n        /* \"contracts/structsContract.sol\":470:471  i */\n      dup4\n        /* \"contracts/structsContract.sol\":461:472  myFamily[i] */\n      0xff\n      and\n      dup2\n      sload\n      dup2\n      lt\n      tag_32\n      jumpi\n      tag_33\n      tag_23\n      jump\t// in\n    tag_33:\n    tag_32:\n      swap1\n      0x00\n      mstore\n      keccak256(0x00, 0x20)\n      swap1\n      0x02\n      mul\n      add\n        /* \"contracts/structsContract.sol\":461:476  myFamily[i].age */\n      0x01\n      add\n      0x01\n      swap1\n      sload\n      swap1\n      0x0100\n      exp\n      swap1\n      div\n      0xffff\n      and\n        /* \"contracts/structsContract.sol\":405:477  return (myFamily[i].lastName,uint8(myFamily[i].houseNo),myFamily[i].age) */\n      swap4\n      pop\n      swap4\n      pop\n      swap4\n      pop\n      pop\n      jump(tag_17)\n        /* \"contracts/structsContract.sol\":355:492  if(name == myFamily[i].lastName){... */\n    tag_25:\n        /* \"contracts/structsContract.sol\":337:340  i++ */\n      dup1\n      dup1\n      tag_35\n      swap1\n      tag_36\n      jump\t// in\n    tag_35:\n      swap2\n      pop\n      pop\n        /* \"contracts/structsContract.sol\":299:502  for(uint8 i = 0; i < myFamily.length; i++){... */\n      jump(tag_18)\n    tag_19:\n      pop\n        /* \"contracts/structsContract.sol\":522:523  0 */\n      0x00\n        /* \"contracts/structsContract.sol\":524:525  0 */\n      dup1\n        /* \"contracts/structsContract.sol\":511:526  return (\"\",0,0) */\n      0x00\n      swap2\n      swap1\n      swap3\n      pop\n      swap3\n      pop\n      swap3\n      pop\n        /* \"contracts/structsContract.sol\":214:533  function getName(bytes32 name) public  view  returns (bytes32,uint8,uint16){... */\n    tag_17:\n      swap2\n      swap4\n      swap1\n      swap3\n      pop\n      jump\t// out\n        /* \"contracts/structsContract.sol\":539:824  function addName(bytes32 _lastName,uint8 _value,uint16 _age) public returns  (bool){... */\n    tag_14:\n        /* \"contracts/structsContract.sol\":617:621  bool */\n      0x00\n        /* \"contracts/structsContract.sol\":632:655  Family memory newFamily */\n      tag_38\n      tag_39\n      jump\t// in\n    tag_38:\n        /* \"contracts/structsContract.sol\":687:696  _lastName */\n      dup5\n        /* \"contracts/structsContract.sol\":666:675  newFamily */\n      dup2\n        /* \"contracts/structsContract.sol\":666:684  newFamily.lastName */\n      0x00\n      add\n        /* \"contracts/structsContract.sol\":666:696  newFamily.lastName = _lastName */\n      dup2\n      dup2\n      mstore\n      pop\n      pop\n        /* \"contracts/structsContract.sol\":726:732  _value */\n      dup4\n        /* \"contracts/structsContract.sol\":706:715  newFamily */\n      dup2\n        /* \"contracts/structsContract.sol\":706:723  newFamily.houseNo */\n      0x20\n      add\n        /* \"contracts/structsContract.sol\":706:732  newFamily.houseNo = _value */\n      swap1\n      0xff\n      and\n      swap1\n      dup2\n      0xff\n      and\n      dup2\n      mstore\n      pop\n      pop\n        /* \"contracts/structsContract.sol\":758:762  _age */\n      dup3\n        /* \"contracts/structsContract.sol\":742:751  newFamily */\n      dup2\n        /* \"contracts/structsContract.sol\":742:755  newFamily.age */\n      0x40\n      add\n        /* \"contracts/structsContract.sol\":742:762  newFamily.age = _age */\n      swap1\n      0xffff\n      and\n      swap1\n      dup2\n      0xffff\n      and\n      dup2\n      mstore\n      pop\n      pop\n        /* \"contracts/structsContract.sol\":772:780  myFamily */\n      0x00\n        /* \"contracts/structsContract.sol\":786:795  newFamily */\n      dup2\n        /* \"contracts/structsContract.sol\":772:796  myFamily.push(newFamily) */\n      swap1\n      dup1\n      0x01\n      dup2\n      sload\n      add\n      dup1\n      dup3\n      sstore\n      dup1\n      swap2\n      pop\n      pop\n      0x01\n      swap1\n      sub\n      swap1\n      0x00\n      mstore\n      keccak256(0x00, 0x20)\n      swap1\n      0x02\n      mul\n      add\n      0x00\n      swap1\n      swap2\n      swap1\n      swap2\n      swap1\n      swap2\n      pop\n      0x00\n      dup3\n      add\n      mload\n      dup2\n      0x00\n      add\n      sstore\n      0x20\n      dup3\n      add\n      mload\n      dup2\n      0x01\n      add\n      exp(0x0100, 0x00)\n      dup2\n      sload\n      dup2\n      0xff\n      mul\n      not\n      and\n      swap1\n      dup4\n      0xff\n      and\n      mul\n      or\n      swap1\n      sstore\n      pop\n      0x40\n      dup3\n      add\n      mload\n      dup2\n      0x01\n      add\n      exp(0x0100, 0x01)\n      dup2\n      sload\n      dup2\n      0xffff\n      mul\n      not\n      and\n      swap1\n      dup4\n      0xffff\n      and\n      mul\n      or\n      swap1\n      sstore\n      pop\n      pop\n      pop\n        /* \"contracts/structsContract.sol\":813:817  true */\n      0x01\n        /* \"contracts/structsContract.sol\":806:817  return true */\n      swap2\n      pop\n      pop\n        /* \"contracts/structsContract.sol\":539:824  function addName(bytes32 _lastName,uint8 _value,uint16 _age) public returns  (bool){... */\n      swap4\n      swap3\n      pop\n      pop\n      pop\n      jump\t// out\n    tag_39:\n      mload(0x40)\n      dup1\n      0x60\n      add\n      0x40\n      mstore\n      dup1\n      0x00\n      dup1\n      not\n      and\n      dup2\n      mstore\n      0x20\n      add\n      and(0xff, 0x00)\n      dup2\n      mstore\n      0x20\n      add\n      and(0xffff, 0x00)\n      dup2\n      mstore\n      pop\n      swap1\n      jump\t// out\n        /* \"#utility.yul\":88:205   */\n    tag_42:\n        /* \"#utility.yul\":197:198   */\n      0x00\n        /* \"#utility.yul\":194:195   */\n      dup1\n        /* \"#utility.yul\":187:199   */\n      revert\n        /* \"#utility.yul\":334:411   */\n    tag_44:\n        /* \"#utility.yul\":371:378   */\n      0x00\n        /* \"#utility.yul\":400:405   */\n      dup2\n        /* \"#utility.yul\":389:405   */\n      swap1\n      pop\n        /* \"#utility.yul\":334:411   */\n      swap2\n      swap1\n      pop\n      jump\t// out\n        /* \"#utility.yul\":417:539   */\n    tag_45:\n        /* \"#utility.yul\":490:514   */\n      tag_65\n        /* \"#utility.yul\":508:513   */\n      dup2\n        /* \"#utility.yul\":490:514   */\n      tag_44\n      jump\t// in\n    tag_65:\n        /* \"#utility.yul\":483:488   */\n      dup2\n        /* \"#utility.yul\":480:515   */\n      eq\n        /* \"#utility.yul\":470:533   */\n      tag_66\n      jumpi\n        /* \"#utility.yul\":529:530   */\n      0x00\n        /* \"#utility.yul\":526:527   */\n      dup1\n        /* \"#utility.yul\":519:531   */\n      revert\n        /* \"#utility.yul\":470:533   */\n    tag_66:\n        /* \"#utility.yul\":417:539   */\n      pop\n      jump\t// out\n        /* \"#utility.yul\":545:684   */\n    tag_46:\n        /* \"#utility.yul\":591:596   */\n      0x00\n        /* \"#utility.yul\":629:635   */\n      dup2\n        /* \"#utility.yul\":616:636   */\n      calldataload\n        /* \"#utility.yul\":607:636   */\n      swap1\n      pop\n        /* \"#utility.yul\":645:678   */\n      tag_68\n        /* \"#utility.yul\":672:677   */\n      dup2\n        /* \"#utility.yul\":645:678   */\n      tag_45\n      jump\t// in\n    tag_68:\n        /* \"#utility.yul\":545:684   */\n      swap3\n      swap2\n      pop\n      pop\n      jump\t// out\n        /* \"#utility.yul\":690:1019   */\n    tag_7:\n        /* \"#utility.yul\":749:755   */\n      0x00\n        /* \"#utility.yul\":798:800   */\n      0x20\n        /* \"#utility.yul\":786:795   */\n      dup3\n        /* \"#utility.yul\":777:784   */\n      dup5\n        /* \"#utility.yul\":773:796   */\n      sub\n        /* \"#utility.yul\":769:801   */\n      slt\n        /* \"#utility.yul\":766:885   */\n      iszero\n      tag_70\n      jumpi\n        /* \"#utility.yul\":804:883   */\n      tag_71\n      tag_42\n      jump\t// in\n    tag_71:\n        /* \"#utility.yul\":766:885   */\n    tag_70:\n        /* \"#utility.yul\":924:925   */\n      0x00\n        /* \"#utility.yul\":949:1002   */\n      tag_72\n        /* \"#utility.yul\":994:1001   */\n      dup5\n        /* \"#utility.yul\":985:991   */\n      dup3\n        /* \"#utility.yul\":974:983   */\n      dup6\n        /* \"#utility.yul\":970:992   */\n      add\n        /* \"#utility.yul\":949:1002   */\n      tag_46\n      jump\t// in\n    tag_72:\n        /* \"#utility.yul\":939:1002   */\n      swap2\n      pop\n        /* \"#utility.yul\":895:1012   */\n      pop\n        /* \"#utility.yul\":690:1019   */\n      swap3\n      swap2\n      pop\n      pop\n      jump\t// out\n        /* \"#utility.yul\":1025:1143   */\n    tag_47:\n        /* \"#utility.yul\":1112:1136   */\n      tag_74\n        /* \"#utility.yul\":1130:1135   */\n      dup2\n        /* \"#utility.yul\":1112:1136   */\n      tag_44\n      jump\t// in\n    tag_74:\n        /* \"#utility.yul\":1107:1110   */\n      dup3\n        /* \"#utility.yul\":1100:1137   */\n      mstore\n        /* \"#utility.yul\":1025:1143   */\n      pop\n      pop\n      jump\t// out\n        /* \"#utility.yul\":1149:1235   */\n    tag_48:\n        /* \"#utility.yul\":1184:1191   */\n      0x00\n        /* \"#utility.yul\":1224:1228   */\n      0xff\n        /* \"#utility.yul\":1217:1222   */\n      dup3\n        /* \"#utility.yul\":1213:1229   */\n      and\n        /* \"#utility.yul\":1202:1229   */\n      swap1\n      pop\n        /* \"#utility.yul\":1149:1235   */\n      swap2\n      swap1\n      pop\n      jump\t// out\n        /* \"#utility.yul\":1241:1353   */\n    tag_49:\n        /* \"#utility.yul\":1324:1346   */\n      tag_77\n        /* \"#utility.yul\":1340:1345   */\n      dup2\n        /* \"#utility.yul\":1324:1346   */\n      tag_48\n      jump\t// in\n    tag_77:\n        /* \"#utility.yul\":1319:1322   */\n      dup3\n        /* \"#utility.yul\":1312:1347   */\n      mstore\n        /* \"#utility.yul\":1241:1353   */\n      pop\n      pop\n      jump\t// out\n        /* \"#utility.yul\":1359:1448   */\n    tag_50:\n        /* \"#utility.yul\":1395:1402   */\n      0x00\n        /* \"#utility.yul\":1435:1441   */\n      0xffff\n        /* \"#utility.yul\":1428:1433   */\n      dup3\n        /* \"#utility.yul\":1424:1442   */\n      and\n        /* \"#utility.yul\":1413:1442   */\n      swap1\n      pop\n        /* \"#utility.yul\":1359:1448   */\n      swap2\n      swap1\n      pop\n      jump\t// out\n        /* \"#utility.yul\":1454:1569   */\n    tag_51:\n        /* \"#utility.yul\":1539:1562   */\n      tag_80\n        /* \"#utility.yul\":1556:1561   */\n      dup2\n        /* \"#utility.yul\":1539:1562   */\n      tag_50\n      jump\t// in\n    tag_80:\n        /* \"#utility.yul\":1534:1537   */\n      dup3\n        /* \"#utility.yul\":1527:1563   */\n      mstore\n        /* \"#utility.yul\":1454:1569   */\n      pop\n      pop\n      jump\t// out\n        /* \"#utility.yul\":1575:2005   */\n    tag_10:\n        /* \"#utility.yul\":1718:1722   */\n      0x00\n        /* \"#utility.yul\":1756:1758   */\n      0x60\n        /* \"#utility.yul\":1745:1754   */\n      dup3\n        /* \"#utility.yul\":1741:1759   */\n      add\n        /* \"#utility.yul\":1733:1759   */\n      swap1\n      pop\n        /* \"#utility.yul\":1769:1840   */\n      tag_82\n        /* \"#utility.yul\":1837:1838   */\n      0x00\n        /* \"#utility.yul\":1826:1835   */\n      dup4\n        /* \"#utility.yul\":1822:1839   */\n      add\n        /* \"#utility.yul\":1813:1819   */\n      dup7\n        /* \"#utility.yul\":1769:1840   */\n      tag_47\n      jump\t// in\n    tag_82:\n        /* \"#utility.yul\":1850:1918   */\n      tag_83\n        /* \"#utility.yul\":1914:1916   */\n      0x20\n        /* \"#utility.yul\":1903:1912   */\n      dup4\n        /* \"#utility.yul\":1899:1917   */\n      add\n        /* \"#utility.yul\":1890:1896   */\n      dup6\n        /* \"#utility.yul\":1850:1918   */\n      tag_49\n      jump\t// in\n    tag_83:\n        /* \"#utility.yul\":1928:1998   */\n      tag_84\n        /* \"#utility.yul\":1994:1996   */\n      0x40\n        /* \"#utility.yul\":1983:1992   */\n      dup4\n        /* \"#utility.yul\":1979:1997   */\n      add\n        /* \"#utility.yul\":1970:1976   */\n      dup5\n        /* \"#utility.yul\":1928:1998   */\n      tag_51\n      jump\t// in\n    tag_84:\n        /* \"#utility.yul\":1575:2005   */\n      swap5\n      swap4\n      pop\n      pop\n      pop\n      pop\n      jump\t// out\n        /* \"#utility.yul\":2011:2129   */\n    tag_52:\n        /* \"#utility.yul\":2082:2104   */\n      tag_86\n        /* \"#utility.yul\":2098:2103   */\n      dup2\n        /* \"#utility.yul\":2082:2104   */\n      tag_48\n      jump\t// in\n    tag_86:\n        /* \"#utility.yul\":2075:2080   */\n      dup2\n        /* \"#utility.yul\":2072:2105   */\n      eq\n        /* \"#utility.yul\":2062:2123   */\n      tag_87\n      jumpi\n        /* \"#utility.yul\":2119:2120   */\n      0x00\n        /* \"#utility.yul\":2116:2117   */\n      dup1\n        /* \"#utility.yul\":2109:2121   */\n      revert\n        /* \"#utility.yul\":2062:2123   */\n    tag_87:\n        /* \"#utility.yul\":2011:2129   */\n      pop\n      jump\t// out\n        /* \"#utility.yul\":2135:2270   */\n    tag_53:\n        /* \"#utility.yul\":2179:2184   */\n      0x00\n        /* \"#utility.yul\":2217:2223   */\n      dup2\n        /* \"#utility.yul\":2204:2224   */\n      calldataload\n        /* \"#utility.yul\":2195:2224   */\n      swap1\n      pop\n        /* \"#utility.yul\":2233:2264   */\n      tag_89\n        /* \"#utility.yul\":2258:2263   */\n      dup2\n        /* \"#utility.yul\":2233:2264   */\n      tag_52\n      jump\t// in\n    tag_89:\n        /* \"#utility.yul\":2135:2270   */\n      swap3\n      swap2\n      pop\n      pop\n      jump\t// out\n        /* \"#utility.yul\":2276:2396   */\n    tag_54:\n        /* \"#utility.yul\":2348:2371   */\n      tag_91\n        /* \"#utility.yul\":2365:2370   */\n      dup2\n        /* \"#utility.yul\":2348:2371   */\n      tag_50\n      jump\t// in\n    tag_91:\n        /* \"#utility.yul\":2341:2346   */\n      dup2\n        /* \"#utility.yul\":2338:2372   */\n      eq\n        /* \"#utility.yul\":2328:2390   */\n      tag_92\n      jumpi\n        /* \"#utility.yul\":2386:2387   */\n      0x00\n        /* \"#utility.yul\":2383:2384   */\n      dup1\n        /* \"#utility.yul\":2376:2388   */\n      revert\n        /* \"#utility.yul\":2328:2390   */\n    tag_92:\n        /* \"#utility.yul\":2276:2396   */\n      pop\n      jump\t// out\n        /* \"#utility.yul\":2402:2539   */\n    tag_55:\n        /* \"#utility.yul\":2447:2452   */\n      0x00\n        /* \"#utility.yul\":2485:2491   */\n      dup2\n        /* \"#utility.yul\":2472:2492   */\n      calldataload\n        /* \"#utility.yul\":2463:2492   */\n      swap1\n      pop\n        /* \"#utility.yul\":2501:2533   */\n      tag_94\n        /* \"#utility.yul\":2527:2532   */\n      dup2\n        /* \"#utility.yul\":2501:2533   */\n      tag_54\n      jump\t// in\n    tag_94:\n        /* \"#utility.yul\":2402:2539   */\n      swap3\n      swap2\n      pop\n      pop\n      jump\t// out\n        /* \"#utility.yul\":2545:3158   */\n    tag_13:\n        /* \"#utility.yul\":2619:2625   */\n      0x00\n        /* \"#utility.yul\":2627:2633   */\n      dup1\n        /* \"#utility.yul\":2635:2641   */\n      0x00\n        /* \"#utility.yul\":2684:2686   */\n      0x60\n        /* \"#utility.yul\":2672:2681   */\n      dup5\n        /* \"#utility.yul\":2663:2670   */\n      dup7\n        /* \"#utility.yul\":2659:2682   */\n      sub\n        /* \"#utility.yul\":2655:2687   */\n      slt\n        /* \"#utility.yul\":2652:2771   */\n      iszero\n      tag_96\n      jumpi\n        /* \"#utility.yul\":2690:2769   */\n      tag_97\n      tag_42\n      jump\t// in\n    tag_97:\n        /* \"#utility.yul\":2652:2771   */\n    tag_96:\n        /* \"#utility.yul\":2810:2811   */\n      0x00\n        /* \"#utility.yul\":2835:2888   */\n      tag_98\n        /* \"#utility.yul\":2880:2887   */\n      dup7\n        /* \"#utility.yul\":2871:2877   */\n      dup3\n        /* \"#utility.yul\":2860:2869   */\n      dup8\n        /* \"#utility.yul\":2856:2878   */\n      add\n        /* \"#utility.yul\":2835:2888   */\n      tag_46\n      jump\t// in\n    tag_98:\n        /* \"#utility.yul\":2825:2888   */\n      swap4\n      pop\n        /* \"#utility.yul\":2781:2898   */\n      pop\n        /* \"#utility.yul\":2937:2939   */\n      0x20\n        /* \"#utility.yul\":2963:3014   */\n      tag_99\n        /* \"#utility.yul\":3006:3013   */\n      dup7\n        /* \"#utility.yul\":2997:3003   */\n      dup3\n        /* \"#utility.yul\":2986:2995   */\n      dup8\n        /* \"#utility.yul\":2982:3004   */\n      add\n        /* \"#utility.yul\":2963:3014   */\n      tag_53\n      jump\t// in\n    tag_99:\n        /* \"#utility.yul\":2953:3014   */\n      swap3\n      pop\n        /* \"#utility.yul\":2908:3024   */\n      pop\n        /* \"#utility.yul\":3063:3065   */\n      0x40\n        /* \"#utility.yul\":3089:3141   */\n      tag_100\n        /* \"#utility.yul\":3133:3140   */\n      dup7\n        /* \"#utility.yul\":3124:3130   */\n      dup3\n        /* \"#utility.yul\":3113:3122   */\n      dup8\n        /* \"#utility.yul\":3109:3131   */\n      add\n        /* \"#utility.yul\":3089:3141   */\n      tag_55\n      jump\t// in\n    tag_100:\n        /* \"#utility.yul\":3079:3141   */\n      swap2\n      pop\n        /* \"#utility.yul\":3034:3151   */\n      pop\n        /* \"#utility.yul\":2545:3158   */\n      swap3\n      pop\n      swap3\n      pop\n      swap3\n      jump\t// out\n        /* \"#utility.yul\":3164:3254   */\n    tag_56:\n        /* \"#utility.yul\":3198:3205   */\n      0x00\n        /* \"#utility.yul\":3241:3246   */\n      dup2\n        /* \"#utility.yul\":3234:3247   */\n      iszero\n        /* \"#utility.yul\":3227:3248   */\n      iszero\n        /* \"#utility.yul\":3216:3248   */\n      swap1\n      pop\n        /* \"#utility.yul\":3164:3254   */\n      swap2\n      swap1\n      pop\n      jump\t// out\n        /* \"#utility.yul\":3260:3369   */\n    tag_57:\n        /* \"#utility.yul\":3341:3362   */\n      tag_103\n        /* \"#utility.yul\":3356:3361   */\n      dup2\n        /* \"#utility.yul\":3341:3362   */\n      tag_56\n      jump\t// in\n    tag_103:\n        /* \"#utility.yul\":3336:3339   */\n      dup3\n        /* \"#utility.yul\":3329:3363   */\n      mstore\n        /* \"#utility.yul\":3260:3369   */\n      pop\n      pop\n      jump\t// out\n        /* \"#utility.yul\":3375:3585   */\n    tag_16:\n        /* \"#utility.yul\":3462:3466   */\n      0x00\n        /* \"#utility.yul\":3500:3502   */\n      0x20\n        /* \"#utility.yul\":3489:3498   */\n      dup3\n        /* \"#utility.yul\":3485:3503   */\n      add\n        /* \"#utility.yul\":3477:3503   */\n      swap1\n      pop\n        /* \"#utility.yul\":3513:3578   */\n      tag_105\n        /* \"#utility.yul\":3575:3576   */\n      0x00\n        /* \"#utility.yul\":3564:3573   */\n      dup4\n        /* \"#utility.yul\":3560:3577   */\n      add\n        /* \"#utility.yul\":3551:3557   */\n      dup5\n        /* \"#utility.yul\":3513:3578   */\n      tag_57\n      jump\t// in\n    tag_105:\n        /* \"#utility.yul\":3375:3585   */\n      swap3\n      swap2\n      pop\n      pop\n      jump\t// out\n        /* \"#utility.yul\":3591:3771   */\n    tag_23:\n        /* \"#utility.yul\":3639:3716   */\n      0x4e487b7100000000000000000000000000000000000000000000000000000000\n        /* \"#utility.yul\":3636:3637   */\n      0x00\n        /* \"#utility.yul\":3629:3717   */\n      mstore\n        /* \"#utility.yul\":3736:3740   */\n      0x32\n        /* \"#utility.yul\":3733:3734   */\n      0x04\n        /* \"#utility.yul\":3726:3741   */\n      mstore\n        /* \"#utility.yul\":3760:3764   */\n      0x24\n        /* \"#utility.yul\":3757:3758   */\n      0x00\n        /* \"#utility.yul\":3750:3765   */\n      revert\n        /* \"#utility.yul\":3777:3957   */\n    tag_58:\n        /* \"#utility.yul\":3825:3902   */\n      0x4e487b7100000000000000000000000000000000000000000000000000000000\n        /* \"#utility.yul\":3822:3823   */\n      0x00\n        /* \"#utility.yul\":3815:3903   */\n      mstore\n        /* \"#utility.yul\":3922:3926   */\n      0x11\n        /* \"#utility.yul\":3919:3920   */\n      0x04\n        /* \"#utility.yul\":3912:3927   */\n      mstore\n        /* \"#utility.yul\":3946:3950   */\n      0x24\n        /* \"#utility.yul\":3943:3944   */\n      0x00\n        /* \"#utility.yul\":3936:3951   */\n      revert\n        /* \"#utility.yul\":3963:4130   */\n    tag_36:\n        /* \"#utility.yul\":4000:4003   */\n      0x00\n        /* \"#utility.yul\":4023:4045   */\n      tag_109\n        /* \"#utility.yul\":4039:4044   */\n      dup3\n        /* \"#utility.yul\":4023:4045   */\n      tag_48\n      jump\t// in\n    tag_109:\n        /* \"#utility.yul\":4014:4045   */\n      swap2\n      pop\n        /* \"#utility.yul\":4067:4071   */\n      0xff\n        /* \"#utility.yul\":4060:4065   */\n      dup3\n        /* \"#utility.yul\":4057:4072   */\n      sub\n        /* \"#utility.yul\":4054:4095   */\n      tag_110\n      jumpi\n        /* \"#utility.yul\":4075:4093   */\n      tag_111\n      tag_58\n      jump\t// in\n    tag_111:\n        /* \"#utility.yul\":4054:4095   */\n    tag_110:\n        /* \"#utility.yul\":4122:4123   */\n      0x01\n        /* \"#utility.yul\":4115:4120   */\n      dup3\n        /* \"#utility.yul\":4111:4124   */\n      add\n        /* \"#utility.yul\":4104:4124   */\n      swap1\n      pop\n        /* \"#utility.yul\":3963:4130   */\n      swap2\n      swap1\n      pop\n      jump\t// out\n\n    auxdata: 0xa2646970667358221220bbf0cdc2c52e12057bc9d7efe81a97f3a240c2599e1dd93c97c71ac4302b194864736f6c63430008120033\n}\n",
				"bytecode": {
					"linkReferences": {},
					"object": "608060405234801561001057600080fd5b50610524806100206000396000f3fe608060405234801561001057600080fd5b50600436106100365760003560e01c806354b8d5e31461003b5780636af75d2a1461006d575b600080fd5b610055600480360381019061005091906102da565b61009d565b6040516100649392919061034f565b60405180910390f35b610087600480360381019061008291906103de565b6101b2565b604051610094919061044c565b60405180910390f35b600080600080600090505b6000805490508160ff16101561019c5760008160ff16815481106100cf576100ce610467565b5b90600052602060002090600202016000015485036101895760008160ff16815481106100fe576100fd610467565b5b90600052602060002090600202016000015460008260ff168154811061012757610126610467565b5b906000526020600020906002020160010160009054906101000a900460ff1660008360ff168154811061015d5761015c610467565b5b906000526020600020906002020160010160019054906101000a900461ffff16935093509350506101ab565b8080610194906104c5565b9150506100a8565b50600080600091909250925092505b9193909250565b60006101bc610274565b8481600001818152505083816020019060ff16908160ff168152505082816040019061ffff16908161ffff168152505060008190806001815401808255809150506001900390600052602060002090600202016000909190919091506000820151816000015560208201518160010160006101000a81548160ff021916908360ff16021790555060408201518160010160016101000a81548161ffff021916908361ffff160217905550505060019150509392505050565b604051806060016040528060008019168152602001600060ff168152602001600061ffff1681525090565b600080fd5b6000819050919050565b6102b7816102a4565b81146102c257600080fd5b50565b6000813590506102d4816102ae565b92915050565b6000602082840312156102f0576102ef61029f565b5b60006102fe848285016102c5565b91505092915050565b610310816102a4565b82525050565b600060ff82169050919050565b61032c81610316565b82525050565b600061ffff82169050919050565b61034981610332565b82525050565b60006060820190506103646000830186610307565b6103716020830185610323565b61037e6040830184610340565b949350505050565b61038f81610316565b811461039a57600080fd5b50565b6000813590506103ac81610386565b92915050565b6103bb81610332565b81146103c657600080fd5b50565b6000813590506103d8816103b2565b92915050565b6000806000606084860312156103f7576103f661029f565b5b6000610405868287016102c5565b93505060206104168682870161039d565b9250506040610427868287016103c9565b9150509250925092565b60008115159050919050565b61044681610431565b82525050565b6000602082019050610461600083018461043d565b92915050565b7f4e487b7100000000000000000000000000000000000000000000000000000000600052603260045260246000fd5b7f4e487b7100000000000000000000000000000000000000000000000000000000600052601160045260246000fd5b60006104d082610316565b915060ff82036104e3576104e2610496565b5b60018201905091905056fea2646970667358221220bbf0cdc2c52e12057bc9d7efe81a97f3a240c2599e1dd93c97c71ac4302b194864736f6c63430008120033",
					"opcodes": "PUSH1 0x80 PUSH1 0x40 MSTORE CALLVALUE DUP1 ISZERO PUSH2 0x10 JUMPI PUSH1 0x0 DUP1 REVERT JUMPDEST POP PUSH2 0x524 DUP1 PUSH2 0x20 PUSH1 0x0 CODECOPY PUSH1 0x0 RETURN INVALID PUSH1 0x80 PUSH1 0x40 MSTORE CALLVALUE DUP1 ISZERO PUSH2 0x10 JUMPI PUSH1 0x0 DUP1 REVERT JUMPDEST POP PUSH1 0x4 CALLDATASIZE LT PUSH2 0x36 JUMPI PUSH1 0x0 CALLDATALOAD PUSH1 0xE0 SHR DUP1 PUSH4 0x54B8D5E3 EQ PUSH2 0x3B JUMPI DUP1 PUSH4 0x6AF75D2A EQ PUSH2 0x6D JUMPI JUMPDEST PUSH1 0x0 DUP1 REVERT JUMPDEST PUSH2 0x55 PUSH1 0x4 DUP1 CALLDATASIZE SUB DUP2 ADD SWAP1 PUSH2 0x50 SWAP2 SWAP1 PUSH2 0x2DA JUMP JUMPDEST PUSH2 0x9D JUMP JUMPDEST PUSH1 0x40 MLOAD PUSH2 0x64 SWAP4 SWAP3 SWAP2 SWAP1 PUSH2 0x34F JUMP JUMPDEST PUSH1 0x40 MLOAD DUP1 SWAP2 SUB SWAP1 RETURN JUMPDEST PUSH2 0x87 PUSH1 0x4 DUP1 CALLDATASIZE SUB DUP2 ADD SWAP1 PUSH2 0x82 SWAP2 SWAP1 PUSH2 0x3DE JUMP JUMPDEST PUSH2 0x1B2 JUMP JUMPDEST PUSH1 0x40 MLOAD PUSH2 0x94 SWAP2 SWAP1 PUSH2 0x44C JUMP JUMPDEST PUSH1 0x40 MLOAD DUP1 SWAP2 SUB SWAP1 RETURN JUMPDEST PUSH1 0x0 DUP1 PUSH1 0x0 DUP1 PUSH1 0x0 SWAP1 POP JUMPDEST PUSH1 0x0 DUP1 SLOAD SWAP1 POP DUP2 PUSH1 0xFF AND LT ISZERO PUSH2 0x19C JUMPI PUSH1 0x0 DUP2 PUSH1 0xFF AND DUP2 SLOAD DUP2 LT PUSH2 0xCF JUMPI PUSH2 0xCE PUSH2 0x467 JUMP JUMPDEST JUMPDEST SWAP1 PUSH1 0x0 MSTORE PUSH1 0x20 PUSH1 0x0 KECCAK256 SWAP1 PUSH1 0x2 MUL ADD PUSH1 0x0 ADD SLOAD DUP6 SUB PUSH2 0x189 JUMPI PUSH1 0x0 DUP2 PUSH1 0xFF AND DUP2 SLOAD DUP2 LT PUSH2 0xFE JUMPI PUSH2 0xFD PUSH2 0x467 JUMP JUMPDEST JUMPDEST SWAP1 PUSH1 0x0 MSTORE PUSH1 0x20 PUSH1 0x0 KECCAK256 SWAP1 PUSH1 0x2 MUL ADD PUSH1 0x0 ADD SLOAD PUSH1 0x0 DUP3 PUSH1 0xFF AND DUP2 SLOAD DUP2 LT PUSH2 0x127 JUMPI PUSH2 0x126 PUSH2 0x467 JUMP JUMPDEST JUMPDEST SWAP1 PUSH1 0x0 MSTORE PUSH1 0x20 PUSH1 0x0 KECCAK256 SWAP1 PUSH1 0x2 MUL ADD PUSH1 0x1 ADD PUSH1 0x0 SWAP1 SLOAD SWAP1 PUSH2 0x100 EXP SWAP1 DIV PUSH1 0xFF AND PUSH1 0x0 DUP4 PUSH1 0xFF AND DUP2 SLOAD DUP2 LT PUSH2 0x15D JUMPI PUSH2 0x15C PUSH2 0x467 JUMP JUMPDEST JUMPDEST SWAP1 PUSH1 0x0 MSTORE PUSH1 0x20 PUSH1 0x0 KECCAK256 SWAP1 PUSH1 0x2 MUL ADD PUSH1 0x1 ADD PUSH1 0x1 SWAP1 SLOAD SWAP1 PUSH2 0x100 EXP SWAP1 DIV PUSH2 0xFFFF AND SWAP4 POP SWAP4 POP SWAP4 POP POP PUSH2 0x1AB JUMP JUMPDEST DUP1 DUP1 PUSH2 0x194 SWAP1 PUSH2 0x4C5 JUMP JUMPDEST SWAP2 POP POP PUSH2 0xA8 JUMP JUMPDEST POP PUSH1 0x0 DUP1 PUSH1 0x0 SWAP2 SWAP1 SWAP3 POP SWAP3 POP SWAP3 POP JUMPDEST SWAP2 SWAP4 SWAP1 SWAP3 POP JUMP JUMPDEST PUSH1 0x0 PUSH2 0x1BC PUSH2 0x274 JUMP JUMPDEST DUP5 DUP2 PUSH1 0x0 ADD DUP2 DUP2 MSTORE POP POP DUP4 DUP2 PUSH1 0x20 ADD SWAP1 PUSH1 0xFF AND SWAP1 DUP2 PUSH1 0xFF AND DUP2 MSTORE POP POP DUP3 DUP2 PUSH1 0x40 ADD SWAP1 PUSH2 0xFFFF AND SWAP1 DUP2 PUSH2 0xFFFF AND DUP2 MSTORE POP POP PUSH1 0x0 DUP2 SWAP1 DUP1 PUSH1 0x1 DUP2 SLOAD ADD DUP1 DUP3 SSTORE DUP1 SWAP2 POP POP PUSH1 0x1 SWAP1 SUB SWAP1 PUSH1 0x0 MSTORE PUSH1 0x20 PUSH1 0x0 KECCAK256 SWAP1 PUSH1 0x2 MUL ADD PUSH1 0x0 SWAP1 SWAP2 SWAP1 SWAP2 SWAP1 SWAP2 POP PUSH1 0x0 DUP3 ADD MLOAD DUP2 PUSH1 0x0 ADD SSTORE PUSH1 0x20 DUP3 ADD MLOAD DUP2 PUSH1 0x1 ADD PUSH1 0x0 PUSH2 0x100 EXP DUP2 SLOAD DUP2 PUSH1 0xFF MUL NOT AND SWAP1 DUP4 PUSH1 0xFF AND MUL OR SWAP1 SSTORE POP PUSH1 0x40 DUP3 ADD MLOAD DUP2 PUSH1 0x1 ADD PUSH1 0x1 PUSH2 0x100 EXP DUP2 SLOAD DUP2 PUSH2 0xFFFF MUL NOT AND SWAP1 DUP4 PUSH2 0xFFFF AND MUL OR SWAP1 SSTORE POP POP POP PUSH1 0x1 SWAP2 POP POP SWAP4 SWAP3 POP POP POP JUMP JUMPDEST PUSH1 0x40 MLOAD DUP1 PUSH1 0x60 ADD PUSH1 0x40 MSTORE DUP1 PUSH1 0x0 DUP1 NOT AND DUP2 MSTORE PUSH1 0x20 ADD PUSH1 0x0 PUSH1 0xFF AND DUP2 MSTORE PUSH1 0x20 ADD PUSH1 0x0 PUSH2 0xFFFF AND DUP2 MSTORE POP SWAP1 JUMP JUMPDEST PUSH1 0x0 DUP1 REVERT JUMPDEST PUSH1 0x0 DUP2 SWAP1 POP SWAP2 SWAP1 POP JUMP JUMPDEST PUSH2 0x2B7 DUP2 PUSH2 0x2A4 JUMP JUMPDEST DUP2 EQ PUSH2 0x2C2 JUMPI PUSH1 0x0 DUP1 REVERT JUMPDEST POP JUMP JUMPDEST PUSH1 0x0 DUP2 CALLDATALOAD SWAP1 POP PUSH2 0x2D4 DUP2 PUSH2 0x2AE JUMP JUMPDEST SWAP3 SWAP2 POP POP JUMP JUMPDEST PUSH1 0x0 PUSH1 0x20 DUP3 DUP5 SUB SLT ISZERO PUSH2 0x2F0 JUMPI PUSH2 0x2EF PUSH2 0x29F JUMP JUMPDEST JUMPDEST PUSH1 0x0 PUSH2 0x2FE DUP5 DUP3 DUP6 ADD PUSH2 0x2C5 JUMP JUMPDEST SWAP2 POP POP SWAP3 SWAP2 POP POP JUMP JUMPDEST PUSH2 0x310 DUP2 PUSH2 0x2A4 JUMP JUMPDEST DUP3 MSTORE POP POP JUMP JUMPDEST PUSH1 0x0 PUSH1 0xFF DUP3 AND SWAP1 POP SWAP2 SWAP1 POP JUMP JUMPDEST PUSH2 0x32C DUP2 PUSH2 0x316 JUMP JUMPDEST DUP3 MSTORE POP POP JUMP JUMPDEST PUSH1 0x0 PUSH2 0xFFFF DUP3 AND SWAP1 POP SWAP2 SWAP1 POP JUMP JUMPDEST PUSH2 0x349 DUP2 PUSH2 0x332 JUMP JUMPDEST DUP3 MSTORE POP POP JUMP JUMPDEST PUSH1 0x0 PUSH1 0x60 DUP3 ADD SWAP1 POP PUSH2 0x364 PUSH1 0x0 DUP4 ADD DUP7 PUSH2 0x307 JUMP JUMPDEST PUSH2 0x371 PUSH1 0x20 DUP4 ADD DUP6 PUSH2 0x323 JUMP JUMPDEST PUSH2 0x37E PUSH1 0x40 DUP4 ADD DUP5 PUSH2 0x340 JUMP JUMPDEST SWAP5 SWAP4 POP POP POP POP JUMP JUMPDEST PUSH2 0x38F DUP2 PUSH2 0x316 JUMP JUMPDEST DUP2 EQ PUSH2 0x39A JUMPI PUSH1 0x0 DUP1 REVERT JUMPDEST POP JUMP JUMPDEST PUSH1 0x0 DUP2 CALLDATALOAD SWAP1 POP PUSH2 0x3AC DUP2 PUSH2 0x386 JUMP JUMPDEST SWAP3 SWAP2 POP POP JUMP JUMPDEST PUSH2 0x3BB DUP2 PUSH2 0x332 JUMP JUMPDEST DUP2 EQ PUSH2 0x3C6 JUMPI PUSH1 0x0 DUP1 REVERT JUMPDEST POP JUMP JUMPDEST PUSH1 0x0 DUP2 CALLDATALOAD SWAP1 POP PUSH2 0x3D8 DUP2 PUSH2 0x3B2 JUMP JUMPDEST SWAP3 SWAP2 POP POP JUMP JUMPDEST PUSH1 0x0 DUP1 PUSH1 0x0 PUSH1 0x60 DUP5 DUP7 SUB SLT ISZERO PUSH2 0x3F7 JUMPI PUSH2 0x3F6 PUSH2 0x29F JUMP JUMPDEST JUMPDEST PUSH1 0x0 PUSH2 0x405 DUP7 DUP3 DUP8 ADD PUSH2 0x2C5 JUMP JUMPDEST SWAP4 POP POP PUSH1 0x20 PUSH2 0x416 DUP7 DUP3 DUP8 ADD PUSH2 0x39D JUMP JUMPDEST SWAP3 POP POP PUSH1 0x40 PUSH2 0x427 DUP7 DUP3 DUP8 ADD PUSH2 0x3C9 JUMP JUMPDEST SWAP2 POP POP SWAP3 POP SWAP3 POP SWAP3 JUMP JUMPDEST PUSH1 0x0 DUP2 ISZERO ISZERO SWAP1 POP SWAP2 SWAP1 POP JUMP JUMPDEST PUSH2 0x446 DUP2 PUSH2 0x431 JUMP JUMPDEST DUP3 MSTORE POP POP JUMP JUMPDEST PUSH1 0x0 PUSH1 0x20 DUP3 ADD SWAP1 POP PUSH2 0x461 PUSH1 0x0 DUP4 ADD DUP5 PUSH2 0x43D JUMP JUMPDEST SWAP3 SWAP2 POP POP JUMP JUMPDEST PUSH32 0x4E487B7100000000000000000000000000000000000000000000000000000000 PUSH1 0x0 MSTORE PUSH1 0x32 PUSH1 0x4 MSTORE PUSH1 0x24 PUSH1 0x0 REVERT JUMPDEST PUSH32 0x4E487B7100000000000000000000000000000000000000000000000000000000 PUSH1 0x0 MSTORE PUSH1 0x11 PUSH1 0x4 MSTORE PUSH1 0x24 PUSH1 0x0 REVERT JUMPDEST PUSH1 0x0 PUSH2 0x4D0 DUP3 PUSH2 0x316 JUMP JUMPDEST SWAP2 POP PUSH1 0xFF DUP3 SUB PUSH2 0x4E3 JUMPI PUSH2 0x4E2 PUSH2 0x496 JUMP JUMPDEST JUMPDEST PUSH1 0x1 DUP3 ADD SWAP1 POP SWAP2 SWAP1 POP JUMP INVALID LOG2 PUSH5 0x6970667358 0x22 SLT KECCAK256 0xBB CREATE 0xCD 0xC2 0xC5 0x2E SLT SDIV PUSH28 0xC9D7EFE81A97F3A240C2599E1DD93C97C71AC4302B194864736F6C63 NUMBER STOP ADDMOD SLT STOP CALLER "
				},
				"gasEstimates": {
					"creation": {
						"codeDepositCost": "263200",
						"executionCost": "306",
						"totalCost": "263506"
					},
					"external": {
						"addName(bytes32,uint8,uint16)": "96271",
						"getName(bytes32)": "infinite"
					}
				},
				"methodIdentifiers": {
					"addName(bytes32,uint8,uint16)": "6af75d2a",
					"getName(bytes32)": "54b8d5e3"
				}
			},
			"storageLayout": {
				"storage": [
					{
						"astId": 12,
						"contract": "contracts/structsContract.sol:StructsContract",
						"label": "myFamily",
						"offset": 0,
						"slot": "0",
						"type": "t_array(t_struct(Family)8_storage)dyn_storage"
					}
				],
				"types": {
					"t_array(t_struct(Family)8_storage)dyn_storage": {
						"base": "t_struct(Family)8_storage",
						"encoding": "dynamic_array",
						"label": "struct StructsContract.Family[]",
						"numberOfBytes": "32"
					},
					"t_bytes32": {
						"encoding": "inplace",
						"label": "bytes32",
						"numberOfBytes": "32"
					},
					"t_struct(Family)8_storage": {
						"encoding": "inplace",
						"label": "struct StructsContract.Family",
						"members": [
							{
								"astId": 3,
								"contract": "contracts/structsContract.sol:StructsContract",
								"label": "lastName",
								"offset": 0,
								"slot": "0",
								"type": "t_bytes32"
							},
							{
								"astId": 5,
								"contract": "contracts/structsContract.sol:StructsContract",
								"label": "houseNo",
								"offset": 0,
								"slot": "1",
								"type": "t_uint8"
							},
							{
								"astId": 7,
								"contract": "contracts/structsContract.sol:StructsContract",
								"label": "age",
								"offset": 1,
								"slot": "1",
								"type": "t_uint16"
							}
						],
						"numberOfBytes": "64"
					},
					"t_uint16": {
						"encoding": "inplace",
						"label": "uint16",
						"numberOfBytes": "2"
					},
					"t_uint8": {
						"encoding": "inplace",
						"label": "uint8",
						"numberOfBytes": "1"
					}
				}
			},
			"userdoc": {
				"kind": "user",
				"methods": {},
				"version": 1
			}
		}
	}
}