{
	"data": {
		"bytecode": {
			"linkReferences": {},
			"object": "608060405260ff6000806101000a81548160ff021916908360ff160217905550348015602a57600080fd5b506084806100396000396000f3fe6080604052348015600f57600080fd5b506004361060285760003560e01c80639311ca6914602d575b600080fd5b60336035565b005b60008060009054906101000a900460ff1660000b90505056fea264697066735822122048f938ffb25797d95014ac47428943f0556e683a6bebfa29358d5d914219b5a764736f6c63430008120033",
			"opcodes": "PUSH1 0x80 PUSH1 0x40 MSTORE PUSH1 0xFF PUSH1 0x0 DUP1 PUSH2 0x100 EXP DUP2 SLOAD DUP2 PUSH1 0xFF MUL NOT AND SWAP1 DUP4 PUSH1 0xFF AND MUL OR SWAP1 SSTORE POP CALLVALUE DUP1 ISZERO PUSH1 0x2A JUMPI PUSH1 0x0 DUP1 REVERT JUMPDEST POP PUSH1 0x84 DUP1 PUSH2 0x39 PUSH1 0x0 CODECOPY PUSH1 0x0 RETURN INVALID PUSH1 0x80 PUSH1 0x40 MSTORE CALLVALUE DUP1 ISZERO PUSH1 0xF JUMPI PUSH1 0x0 DUP1 REVERT JUMPDEST POP PUSH1 0x4 CALLDATASIZE LT PUSH1 0x28 JUMPI PUSH1 0x0 CALLDATALOAD PUSH1 0xE0 SHR DUP1 PUSH4 0x9311CA69 EQ PUSH1 0x2D JUMPI JUMPDEST PUSH1 0x0 DUP1 REVERT JUMPDEST PUSH1 0x33 PUSH1 0x35 JUMP JUMPDEST STOP JUMPDEST PUSH1 0x0 DUP1 PUSH1 0x0 SWAP1 SLOAD SWAP1 PUSH2 0x100 EXP SWAP1 DIV PUSH1 0xFF AND PUSH1 0x0 SIGNEXTEND SWAP1 POP POP JUMP INVALID LOG2 PUSH5 0x6970667358 0x22 SLT KECCAK256 BASEFEE 0xF9 CODESIZE SELFDESTRUCT 0xB2 JUMPI SWAP8 0xD9 POP EQ 0xAC SELFBALANCE TIMESTAMP DUP10 NUMBER CREATE SSTORE PUSH15 0x683A6BEBFA29358D5D914219B5A764 PUSH20 0x6F6C634300081200330000000000000000000000 "
		},
		"gasEstimates": {
			"creation": {
				"codeDepositCost": "26400",
				"executionCost": "24348",
				"totalCost": "50748"
			},
			"external": {
				"conversion()": "2279"
			}
		},
		"methodIdentifiers": {
			"conversion()": "9311ca69"
		}
	},
	"abi": [
		{
			"inputs": [],
			"name": "conversion",
			"outputs": [],
			"stateMutability": "view",
			"type": "function"
		}
	]
}